{
  "contractName": "RegisterContract",
  "abi": [
    {
      "inputs": [],
      "stateMutability": "nonpayable",
      "type": "constructor"
    },
    {
      "anonymous": false,
      "inputs": [
        {
          "indexed": true,
          "internalType": "address",
          "name": "creator",
          "type": "address"
        },
        {
          "indexed": false,
          "internalType": "string",
          "name": "name",
          "type": "string"
        },
        {
          "indexed": false,
          "internalType": "string",
          "name": "content",
          "type": "string"
        },
        {
          "indexed": false,
          "internalType": "uint256",
          "name": "time",
          "type": "uint256"
        }
      ],
      "name": "NewPodcast",
      "type": "event"
    },
    {
      "inputs": [
        {
          "internalType": "address",
          "name": "",
          "type": "address"
        }
      ],
      "name": "count",
      "outputs": [
        {
          "internalType": "uint256",
          "name": "",
          "type": "uint256"
        }
      ],
      "stateMutability": "view",
      "type": "function",
      "constant": true
    },
    {
      "inputs": [],
      "name": "owner",
      "outputs": [
        {
          "internalType": "address",
          "name": "",
          "type": "address"
        }
      ],
      "stateMutability": "view",
      "type": "function",
      "constant": true
    },
    {
      "inputs": [
        {
          "internalType": "address",
          "name": "",
          "type": "address"
        },
        {
          "internalType": "uint256",
          "name": "",
          "type": "uint256"
        }
      ],
      "name": "podsFromArtist",
      "outputs": [
        {
          "internalType": "string",
          "name": "name",
          "type": "string"
        },
        {
          "internalType": "uint256",
          "name": "uploadTime",
          "type": "uint256"
        },
        {
          "internalType": "string",
          "name": "content",
          "type": "string"
        }
      ],
      "stateMutability": "view",
      "type": "function",
      "constant": true
    },
    {
      "inputs": [],
      "name": "setCount",
      "outputs": [],
      "stateMutability": "nonpayable",
      "type": "function"
    },
    {
      "inputs": [
        {
          "internalType": "string",
          "name": "_name",
          "type": "string"
        },
        {
          "internalType": "string",
          "name": "_content",
          "type": "string"
        }
      ],
      "name": "newPodcast",
      "outputs": [
        {
          "internalType": "bool",
          "name": "isSuccessed",
          "type": "bool"
        }
      ],
      "stateMutability": "nonpayable",
      "type": "function"
    },
    {
      "inputs": [
        {
          "internalType": "address",
          "name": "_account",
          "type": "address"
        }
      ],
      "name": "allPodcastsFromArtist",
      "outputs": [
        {
          "internalType": "string[]",
          "name": "",
          "type": "string[]"
        }
      ],
      "stateMutability": "view",
      "type": "function",
      "constant": true
    }
  ],
  "bytecode": "0x608060405234801561001057600080fd5b50336000806101000a81548173ffffffffffffffffffffffffffffffffffffffff021916908373ffffffffffffffffffffffffffffffffffffffff160217905550610d23806100606000396000f3fe608060405234801561001057600080fd5b50600436106100625760003560e01c806305d85eda146100675780630ee84398146100975780631c48804c146100c75780638da5cb5b146100f7578063e149be8e14610115578063f3922ca214610147575b600080fd5b610081600480360381019061007c9190610865565b610151565b60405161008e9190610b40565b60405180910390f35b6100b160048036038101906100ac9190610865565b610169565b6040516100be9190610a79565b60405180910390f35b6100e160048036038101906100dc91906108ca565b61040e565b6040516100ee9190610a9b565b60405180910390f35b6100ff610541565b60405161010c9190610a5e565b60405180910390f35b61012f600480360381019061012a919061088e565b610565565b60405161013e93929190610afb565b60405180910390f35b61014f6106d9565b005b60026020528060005260406000206000915090505481565b606080600160008473ffffffffffffffffffffffffffffffffffffffff1673ffffffffffffffffffffffffffffffffffffffff168152602001908152602001600020805480602002602001604051908101604052809291908181526020016000905b8282101561034b5783829060005260206000209060030201604051806060016040529081600082018054600181600116156101000203166002900480601f0160208091040260200160405190810160405280929190818152602001828054600181600116156101000203166002900480156102875780601f1061025c57610100808354040283529160200191610287565b820191906000526020600020905b81548152906001019060200180831161026a57829003601f168201915b5050505050815260200160018201548152602001600282018054600181600116156101000203166002900480601f0160208091040260200160405190810160405280929190818152602001828054600181600116156101000203166002900480156103335780601f1061030857610100808354040283529160200191610333565b820191906000526020600020905b81548152906001019060200180831161031657829003601f168201915b505050505081525050815260200190600101906101cb565b5050505090506060600267ffffffffffffffff8111801561036b57600080fd5b5060405190808252806020026020018201604052801561039f57816020015b606081526020019060019003908161038a5790505b509050816000815181106103af57fe5b602002602001015160000151816000815181106103c857fe5b6020026020010181905250816000815181106103e057fe5b602002602001015160400151816001815181106103f957fe5b60200260200101819052508092505050919050565b6000610418610729565b6040518060600160405280858152602001428152602001848152509050600160003373ffffffffffffffffffffffffffffffffffffffff1673ffffffffffffffffffffffffffffffffffffffff16815260200190815260200160002081908060018154018082558091505060019003906000526020600020906003020160009091909190915060008201518160000190805190602001906104ba92919061074a565b506020820151816001015560408201518160020190805190602001906104e192919061074a565b5050503373ffffffffffffffffffffffffffffffffffffffff167f3bb3929232407100189fb0c02ec5003d26efd2f724798771e1e36ff1d8f6a19d85854260405161052e93929190610ab6565b60405180910390a2600191505092915050565b60008054906101000a900473ffffffffffffffffffffffffffffffffffffffff1681565b6001602052816000526040600020818154811061057e57fe5b906000526020600020906003020160009150915050806000018054600181600116156101000203166002900480601f01602080910402602001604051908101604052809291908181526020018280546001816001161561010002031660029004801561062b5780601f106106005761010080835404028352916020019161062b565b820191906000526020600020905b81548152906001019060200180831161060e57829003601f168201915b505050505090806001015490806002018054600181600116156101000203166002900480601f0160208091040260200160405190810160405280929190818152602001828054600181600116156101000203166002900480156106cf5780601f106106a4576101008083540402835291602001916106cf565b820191906000526020600020905b8154815290600101906020018083116106b257829003601f168201915b5050505050905083565b6001600260003373ffffffffffffffffffffffffffffffffffffffff1673ffffffffffffffffffffffffffffffffffffffff16815260200190815260200160002060008282540192505081905550565b60405180606001604052806060815260200160008152602001606081525090565b828054600181600116156101000203166002900490600052602060002090601f016020900481019282601f1061078b57805160ff19168380011785556107b9565b828001600101855582156107b9579182015b828111156107b857825182559160200191906001019061079d565b5b5090506107c691906107ca565b5090565b5b808211156107e35760008160009055506001016107cb565b5090565b6000813590506107f681610cbf565b92915050565b600082601f83011261080d57600080fd5b813561082061081b82610b8c565b610b5b565b9150808252602083016020830185838301111561083c57600080fd5b610847838284610c6a565b50505092915050565b60008135905061085f81610cd6565b92915050565b60006020828403121561087757600080fd5b6000610885848285016107e7565b91505092915050565b600080604083850312156108a157600080fd5b60006108af858286016107e7565b92505060206108c085828601610850565b9150509250929050565b600080604083850312156108dd57600080fd5b600083013567ffffffffffffffff8111156108f757600080fd5b610903858286016107fc565b925050602083013567ffffffffffffffff81111561092057600080fd5b61092c858286016107fc565b9150509250929050565b600061094283836109dd565b905092915050565b61095381610c22565b82525050565b600061096482610bcc565b61096e8185610bef565b93508360208202850161098085610bbc565b8060005b858110156109bc578484038952815161099d8582610936565b94506109a883610be2565b925060208a01995050600181019050610984565b50829750879550505050505092915050565b6109d781610c34565b82525050565b60006109e882610bd7565b6109f28185610c00565b9350610a02818560208601610c79565b610a0b81610cae565b840191505092915050565b6000610a2182610bd7565b610a2b8185610c11565b9350610a3b818560208601610c79565b610a4481610cae565b840191505092915050565b610a5881610c60565b82525050565b6000602082019050610a73600083018461094a565b92915050565b60006020820190508181036000830152610a938184610959565b905092915050565b6000602082019050610ab060008301846109ce565b92915050565b60006060820190508181036000830152610ad08186610a16565b90508181036020830152610ae48185610a16565b9050610af36040830184610a4f565b949350505050565b60006060820190508181036000830152610b158186610a16565b9050610b246020830185610a4f565b8181036040830152610b368184610a16565b9050949350505050565b6000602082019050610b556000830184610a4f565b92915050565b6000604051905081810181811067ffffffffffffffff82111715610b8257610b81610cac565b5b8060405250919050565b600067ffffffffffffffff821115610ba757610ba6610cac565b5b601f19601f8301169050602081019050919050565b6000819050602082019050919050565b600081519050919050565b600081519050919050565b6000602082019050919050565b600082825260208201905092915050565b600082825260208201905092915050565b600082825260208201905092915050565b6000610c2d82610c40565b9050919050565b60008115159050919050565b600073ffffffffffffffffffffffffffffffffffffffff82169050919050565b6000819050919050565b82818337600083830152505050565b60005b83811015610c97578082015181840152602081019050610c7c565b83811115610ca6576000848401525b50505050565bfe5b6000601f19601f8301169050919050565b610cc881610c22565b8114610cd357600080fd5b50565b610cdf81610c60565b8114610cea57600080fd5b5056fea264697066735822122099553f12952d65f0442ee8535970f4a4c67638b29bd01a99e1c0ce38898bbdb764736f6c63430007020033",
  "immutableReferences": {},
  "source": "// SPDX-License-Identifier: MIT\n// pragma solidity 0.7.2;\npragma experimental ABIEncoderV2;\n\ncontract RegisterContract{\n    address public owner;\n    mapping (address => Podcast[]) public podsFromArtist;\n\n    mapping (address => uint) public count;\n\n    function setCount()public{\n        count[msg.sender] += 1;\n    }\n\n    struct Podcast{\n        string name;\n        uint uploadTime; \n        string content;\n    }\n\n    event NewPodcast( address indexed creator, string name, string content, uint time);\n    constructor() public{\n        owner=msg.sender;\n    } \n\n    function newPodcast(string memory _name, string memory _content) public returns( bool isSuccessed){\n        Podcast memory pc = Podcast(_name, block.timestamp, _content);\n        podsFromArtist[msg.sender].push(pc);\n        emit NewPodcast( msg.sender, _name, _content, block.timestamp);\n        isSuccessed = true;\n    }\n\n    function allPodcastsFromArtist(address _account)public view returns(string [] memory){\n        Podcast [] memory pc = podsFromArtist[_account];\n        string [] memory data = new string[](2);\n        // data = [pc.name, string(pc.uploadTime),pc.content];\n        data[0] = pc[0].name;\n        // data[1] = \"\"+pc.uploadTime;\n        data[1] = pc[0].content;\n        return data;\n    }\n}",
  "sourcePath": "/home/ervin/Documents/Projects/Programming/Blockchain/Projects/Podcast/contracts/RegisterContract.sol",
  "compiler": {
    "name": "solc",
    "version": "0.7.2+commit.51b20bc0.Emscripten.clang"
  },
  "schemaVersion": "3.4.1",
  "updatedAt": "2021-12-06T02:25:14.575Z",
  "networkType": "ethereum",
  "devdoc": {
    "kind": "dev",
    "methods": {},
    "version": 1
  },
  "userdoc": {
    "kind": "user",
    "methods": {},
    "version": 1
  }
}